:100000000C9424010C9441010C9441010C94410185
:100010000C94A0010C94B5010C9441010C94410185
:100020000C9441010C9441010C9441010C94410148
:100030000C9441010C9441010C9443010C94410136
:100040000C9441010C9441010C9441010C94410128
:100050000C9441010C9441010C9441010C94410118
:100060000C9441010C944101000000000000005F6D
:1000700000000007000700147F147F14242A7F2A41
:10008000122313086462364955225000050300000C
:10009000001C2241000041221C0014083E081408E4
:1000A000083E0808005030000008080808080060F2
:1000B00060000020100804023E5149453E00427F86
:1000C000400042615149462141454B311814127F8D
:1000D0001027454545393C4A494930017109050316
:1000E0003649494936064949291E0036360000007E
:1000F0005636000008142241001414141414004150
:100100002214080201510906324979413E7E11113B
:10011000117E7F494949363E414141227F4141227A
:100120001C7F494949417F090909013E4149497AF2
:100130007F0808087F00417F41002040413F017F48
:10014000081422417F404040407F020C027F7F0420
:1001500008107F3E4141413E7F090909063E415159
:10016000215E7F09192946464949493101017F012C
:10017000013F4040403F1F2040201F3F4038403F4C
:100180006314081463070870080761514945430068
:100190007F41410002040810200041417F00040219
:1001A0000102044040404040000102040020545439
:1001B00054787F48444438384444442038444448C0
:1001C0007F3854545418087E0901020C5252523E92
:1001D0007F0804047800447D40002040443D007FB7
:1001E0001028440000417F40007C041804787C08FB
:1001F00004047838444444387C1414140808141453
:10020000187C7C080404084854545420043F44409B
:10021000203C4040207C1C2040201C3C4030403C86
:1002200044281028440C5050503C4464544C440022
:100230000836410000007F00000041360800100829
:10024000081008000000000011241FBECFEFD8E006
:10025000DEBFCDBF11E0A0E0B1E0E2EDFBE102C006
:1002600005900D92A834B107D9F723E0A8E4B1E0D6
:1002700001C01D92AC35B207E1F70E944F070C9404
:10028000E70D0C9400001F920F920FB60F921124ED
:10029000CF92DF92EF92FF922F933F934F935F9312
:1002A0006F937F938F939F93AF93BF93EF93FF933E
:1002B000C0905E01D0905F01E0906001F09061011C
:1002C0008FEFC81AD80AE80AF80AC0925E01D092E5
:1002D0005F01E0926001F0926101C701B60122E383
:1002E00030E040E050E00E94CC0A672B682B692B7D
:1002F00019F081E080935901C701B6012CE231E089
:1003000040E050E00E94CC0A672B682B692B19F063
:1003100081E080935801FF91EF91BF91AF919F9140
:100320008F917F916F915F914F913F912F91FF90AE
:10033000EF90DF90CF900F900FBE0F901F90189509
:100340001F920F920FB60F9211248F939F9381E00B
:1003500090915501911180E0809355019F918F916B
:100360000F900FBE0F901F9018951F920F920FB60F
:100370000F921124CF92DF92EF92FF922F933F932F
:100380004F935F936F937F938F939F93AF93BF939D
:10039000EF93FF93499919C081E090915401911115
:1003A00080E080935401882321F084E080935B01F6
:1003B00002C010925B012FEF83EC99E02150804046
:1003C0009040E1F700C00000B7C04A9929C0C09032
:1003D0005E01D0905F01E0906001F090610180913A
:1003E000500190915101A0915201B0915301A70188
:1003F0009601281B390B4A0B5B0B60E67AEE80E016
:1004000090E00E94CC0A30935D0120935C01C09281
:100410005001D0925101E0925201F09253018CC0F0
:100420004C9933C080915B01813071F028F08230AB
:1004300099F08330C9F01FC081E090915A01911169
:1004400080E080935A0117C080910201893098F4AE
:100450008F5F809302010FC080910001893058F4B2
:100460008F5F8093000107C080910101893018F4EB
:100470008F5F809301012FEF83EC99E02150804042
:100480009040E1F700C0000057C04D9933C0809103
:100490005B01813071F028F0823099F08330C9F02F
:1004A0001FC081E090915A01911180E080935A0120
:1004B00017C080910201823098F081508093020130
:1004C0000FC080910001823058F08150809300016C
:1004D00007C080910101823018F0815080930101A2
:1004E0002FEF83EC99E0215080409040E1F700C06D
:1004F000000022C04E9920C080915A01882399F0B3
:1005000080914F01882351F090915B01933020F44A
:100510009F5F90935B0102C010925B0191E081119B
:1005200090E090934F012FEF83EC99E021508040B1
:100530009040E1F700C00000FF91EF91BF91AF91B3
:100540009F918F917F916F915F914F913F912F91EB
:10055000FF90EF90DF90CF900F900FBE0F901F9005
:1005600018958F929F92AF92BF92CF92DF92EF92A7
:10057000FF920F931F93CF93DF93CDB7DEB76297B0
:100580000FB6F894DEBF0FBECDBF22E1E3E0F1E08D
:10059000DE01119601900D922A95E1F7E0914E014E
:1005A000EE0FFF0BCC24C394D12CCC0EDD1EEC0D32
:1005B000FD1D208125B9209154012111B4C02BB11A
:1005C0002E7F2BB9E0914E01EE0FFF0BEC0DFD1DC0
:1005D0002081318130FF04C02BB120682BB903C0CA
:1005E0002BB12F772BB920914E01243074F5C09098
:1005F0004A01D0904B01E0904C01F0904D014B012D
:100600005C018C189D08AE08BF08409102013AEFCA
:10061000439FA0011124CA01550FAA0BBB0B8816DA
:100620009906AA06BB0608F4BDC02F5F20934E01B1
:100630008C0D9D1DAE1DBF1D80934A0190934B01F3
:10064000A0934C01B0934D01ADC025308CF5C09006
:100650004A01D0904B01E0904C01F0904D014B01CC
:100660005C018C189D08AE08BF083091010188EE2E
:1006700093E0389FA001399F500D1124CA01550FF6
:10068000AA0BBB0B88169906AA06BB0608F48AC0FB
:100690002F5F20934E018C0D9D1DAE1DBF1D8093BD
:1006A0004A0190934B01A0934C01B0934D017AC045
:1006B000293074F5C0904A01D0904B01E0904C0174
:1006C000F0904D014B015C018C189D08AE08BF08ED
:1006D000409100018AEF489FA0011124CA01550FE3
:1006E000AA0BBB0B88169906AA06BB0608F45AC0CB
:1006F0002F5F20934E018C0D9D1DAE1DBF1D80935D
:100700004A0190934B01A0934C01B0934D014AC014
:1007100010924E0160934A0170934B0180934C01FB
:1007200090934D013FC000914A0110914B012091DF
:100730004C0130914D016B017C01C01AD10AE20AD3
:10074000F30A44EFC41641E0D406E104F10450F189
:1007500020914901222389F02BB120682BB92BB1BC
:100760002E7F2BB921E030914901311120E02093F7
:10077000490124E020934E010DC02BB12F772BB9F6
:100780002BB121602BB921E030914901311120E0DA
:100790002093490160934A0170934B0180934C016F
:1007A00090934D0162960FB6F894DEBF0FBECDBF99
:1007B000DF91CF911F910F91FF90EF90DF90CF903D
:1007C000BF90AF909F908F900895EF92FF920F93FC
:1007D0001F93CF93DF93CDB7DEB762970FB6F89430
:1007E000DEBF0FBECDBF7C0180915A01882321F06E
:1007F0008DE4809348011AC081E4809348012091E0
:100800005C0130915D01A9E8B8E80E94EE0A969576
:100810008795929582958F7089279F70892799E097
:10082000981B909302018F5F8093000180910201D9
:100830001F928F9305E111E01F930F93CE01019654
:100840009F938F930E94FD0A809100011F928F93C6
:100850001F930F93CE0104969F938F930E94FD0ADE
:10086000809101011F928F931F930F93CE010796E2
:100870009F938F930E94FD0A80915D018F938091D9
:100880005C018F931F930F93CE010A969F938F93D2
:100890000E94FD0A809157018F93809156018F939A
:1008A0001F930F93CE010F969F938F930E94FD0A83
:1008B000F70180810FB6F894DEBF0FBECDBF88234D
:1008C00009F491C280915B01823009F442C130F495
:1008D000882359F0813009F4A2C085C2833009F41D
:1008E000D2C1843009F469C27EC20E941F0848E266
:1008F0006FE280E00E94610865E080E00E940B09E1
:1009000061E088E191E00E94FA0865E08EE10E94D2
:100910000B0961E0809148010E94740865E08AE259
:100920000E940B0961E08DE191E00E94FA086FE0FE
:1009300080E00E940B0961E08FE191E00E94FA08DB
:100940006FE08EE10E940B0961E0CE0101960E94EA
:10095000FA086FE083E20E940B0961E084E291E013
:100960000E94FA0860E082E30E940B0962E0CE0177
:100970000F960E94FA086FE082E30E940B0961E083
:1009800086E291E00E94FA0869E182E30E940B0985
:1009900062E0CE010A960E94FA0868E282E30E94B1
:1009A0000B0961E08AE291E00E94FA0869E180E0C7
:1009B0000E940B0961E080E391E00E94FA0869E17E
:1009C0008EE10E940B0961E0CE0104960E94FA08B4
:1009D00069E183E20E940B0961E084E291E00E94F8
:1009E000FA0863E280E00E940B0961E085E391E090
:1009F0000E94FA0863E28EE10E940B0961E0CE01D9
:100A000007960E94FA0863E283E20E940B0961E004
:100A100084E291E00E94FA080E941009E4C10E9459
:100A20001F0848E26FE280E00E94610865E080E014
:100A30000E940B0961E088E191E00E94FA0865E0FC
:100A40008EE10E940B0961E0809148010E947408C8
:100A50006FE080E00E940B0961E08FE191E00E946D
:100A6000FA086FE08EE10E940B0961E0CE01019669
:100A70000E94FA086FE083E20E940B0961E084E2C1
:100A800091E00E94FA086FE08AE20E940B0961E09F
:100A90008DE191E00E94FA0860E082E30E940B0978
:100AA00062E0CE010F960E94FA086FE082E30E9496
:100AB0000B0961E086E291E00E94FA0869E182E3B5
:100AC0000E940B0962E0CE010A960E94FA0868E2D1
:100AD00082E30E940B0961E08AE291E00E94FA0839
:100AE00069E180E00E940B0961E080E391E00E94EF
:100AF000FA0869E18EE10E940B0961E0CE010496DB
:100B00000E94FA0869E183E20E940B0961E084E235
:100B100091E00E94FA0863E280E00E940B0961E024
:100B200085E391E00E94FA0863E28EE10E940B09DE
:100B300061E0CE0107960E94FA0863E283E20E9418
:100B40000B0961E084E291E00E94FA080E9410091A
:100B50004AC10E941F0848E26FE280E00E946108DB
:100B600065E080E00E940B0961E088E191E00E946D
:100B7000FA0865E08EE10E940B0961E0809148016E
:100B80000E9474086FE080E00E940B0961E08FE131
:100B900091E00E94FA086FE08EE10E940B0961E08B
:100BA000CE0101960E94FA086FE083E20E940B09D1
:100BB00061E084E291E00E94FA0860E082E30E9432
:100BC0000B0962E0CE010F960E94FA086FE082E303
:100BD0000E940B0961E086E291E00E94FA0869E157
:100BE00082E30E940B0962E0CE010A960E94FA0895
:100BF00068E282E30E940B0961E08AE291E00E94D0
:100C0000FA0869E180E00E940B0961E080E391E06D
:100C10000E94FA0869E18EE10E940B0961E0CE01B1
:100C200004960E94FA0869E183E20E940B0961E0E0
:100C300084E291E00E94FA0869E18AE20E940B09CD
:100C400061E08DE191E00E94FA0863E280E00E9499
:100C50000B0961E085E391E00E94FA0863E28EE10E
:100C60000E940B0961E0CE0107960E94FA0863E238
:100C700083E20E940B0961E084E291E00E94FA089D
:100C80000E941009B0C00E941F0848E26FE280E095
:100C90000E94610865E080E00E940B0961E088E144
:100CA00091E00E94FA0865E08EE10E940B0961E084
:100CB000809148010E9474086FE080E00E940B0957
:100CC00061E08FE191E00E94FA086FE08EE10E94FE
:100CD0000B0961E0CE0101960E94FA086FE083E201
:100CE0000E940B0961E084E291E00E94FA0860E052
:100CF00082E30E940B0962E0CE010F960E94FA087F
:100D00006FE082E30E940B0961E086E291E00E94BD
:100D1000FA0869E182E30E940B0962E0CE010A96BB
:100D20000E94FA0868E282E30E940B0961E08AE20D
:100D300091E00E94FA0869E180E00E940B0961E0FD
:100D400080E391E00E94FA0869E18EE10E940B09BC
:100D500061E0CE0104960E94FA0869E183E20E94F4
:100D60000B0961E084E291E00E94FA0863E280E00E
:100D70000E940B0961E085E391E00E94FA0863E2BA
:100D80008EE10E940B0961E0CE0107960E94FA08ED
:100D900063E283E20E940B0961E084E291E00E9439
:100DA000FA0863E28AE20E940B0961E08DE191E0BA
:100DB0000E94FA080E94100916C00E941F0860E0F5
:100DC00085E00E940B0962E08AE391E00E94FA0844
:100DD00069E185E00E940B0963E082E491E00E94F2
:100DE000FA080E941009F701908181E0911180E0DA
:100DF000F701808362960FB6F894DEBF0FBECDBFB9
:100E0000DF91CF911F910F91FF90EF900895CF93B5
:100E1000DF93EC0188818823F1F160917800709173
:100E2000790080E090E00E94C50920E030E84FEFB3
:100E300053E40E94290921E73DE34AEF5FE30E9462
:100E4000530A9B01AC0160E070E08AE794E40E94E1
:100E500029090E94960970935701609356016C32DC
:100E60007140B8F480915501813039F020915C01D6
:100E700030915D012115310521F08FEF8093B40091
:100E80000AC0882311F0232B31F48DE48093B40041
:100E900002C01092B4001882DF91CF9108958FEFB5
:100EA00084B989E88AB996E79BB980E487B988B99B
:100EB00026E02093680080936C0090936D0022E000
:100EC00024BD93E095BD39EF37BD20936E0080932C
:100ED0007C0087EE80937A0010927B0010927E0057
:100EE00083EA8093B0009093B1001092B4008BB16C
:100EF0008E7F8BB978940E94C70760915E017091D4
:100F00005F0180916001909161010E94B10289E5C9
:100F100091E00E94E50388E591E00E940707EDCF8C
:100F200098B19D7F98B9662329F098B1986098B9D7
:100F300090E01FC098B1977F98B9FACF47E050E092
:100F4000491B5109282F30E002C0359527954A9555
:100F5000E2F720FF04C028B1206128B903C028B1FE
:100F60002F7E28B928B1206228B928B12F7D28B951
:100F70009F5F983018F388B1826088B9089560E067
:100F80000E949007089561E00E9490070895CF9312
:100F9000DF9387B1826087B987B1846087B987B1F1
:100FA000886087B987B1806187B987B1806287B966
:100FB00088B1846088B988B1826088B983EC99E08F
:100FC0000197F1F700C0000088B18B7F88B98BE5ED
:100FD00094E40197F1F700C0000088B1846088B9FB
:100FE00088B18D7F88B981E20E94BF0783E10E94AA
:100FF000BF0786E00E94BF0782EC0E94BF0780E225
:101000000E94BF0789E00E94BF0780E80E94BF07D7
:1010100080E40E94BF07C0E0D0E004C080E00E94EE
:10102000C3072196C83F91E0D907C0F388E00E942A
:10103000BF078CE00E94BF07DF91CF91089580E841
:101040000E94BF0780E40E94BF0710925A031092CB
:101050005B0380E090E005C0FC01EE59FE4F10827A
:101060000196883F21E09207B8F30895262F269530
:101070002695269590E034E5239F800D911D11243F
:10108000442379F0677021E030E002C0220F331F63
:101090006A95E2F7FC01EE59FE4F8081282B2083F0
:1010A0000895677021E030E002C0220F331F6A9577
:1010B000E2F7FC01EE59FE4F209580812823208322
:1010C00008951F93CF93DF93C82F162FD42F06C0F8
:1010D00041E06C2F812F0E943608CF5FDC17C0F7EC
:1010E000DF91CF911F910895EF92FF920F931F937D
:1010F000CF93DF93E82EF62E00E045C02E2D30E092
:1011000020523109802F6F2D0E94C00AF901EE0F85
:10111000FF1FEE0FFF1FE20FF31FE80FF11DE8594D
:10112000FF4FE491812F0E94C00AF0E002C0F595C4
:10113000E7958A95E2F7E0FF0AC060915B03809132
:101140005A03610F41E0800F0E94360809C0609188
:101150005B0380915A03610F40E0800F0E943608C4
:101160001F5F01C010E0212F30E0CE01880F991FD2
:10117000880F991F880F991F8C1B9D0B2817390703
:101180000CF4BCCF0F5F202F30E0CF2DD0E0CE018C
:10119000880F991F880F991F8C0F9D1F28173907DB
:1011A0000CF3EAE5F3E08F2D880F880F8F0D908107
:1011B000890F8F5F8083843570F010925A03EBE5BE
:1011C000F3E08F2D880F880F880F982F9F1980814B
:1011D000890F8F5F808380915B03803320F01092B2
:1011E0005A0310925B03DF91CF911F910F91FF90F3
:1011F000EF9008951F93CF93DF93EC01162F04C057
:101200002196612F0E94740888818111F9CFDF91A6
:10121000CF911F91089580935A0360935B030895C3
:10122000CF93DF9380E80E94BF0780E40E94BF074E
:10123000C0E0D0E007C0FE01EE59FE4F80810E9461
:10124000C3072196C83F81E0D807A8F3DF91CF916B
:1012500008955058BB27AA270E9441090C94190AE7
:101260000E940B0A38F00E94120A20F039F49F3FC6
:1012700019F426F40C94080A0EF4E095E7FB0C949C
:10128000020AE92F0E942A0A58F3BA176207730765
:101290008407950720F079F4A6F50C944C0A0EF417
:1012A000E0950B2EBA2FA02D0B01B90190010C0176
:1012B000CA01A0011124FF27591B99F0593F50F48E
:1012C000503E68F11A16F040A22F232F342F4427E6
:1012D000585FF3CF469537952795A795F0405395DE
:1012E000C9F77EF41F16BA0B620B730B840BBAF0AE
:1012F0009150A1F0FF0FBB1F661F771F881FC2F719
:101300000EC0BA0F621F731F841F48F4879577952C
:101310006795B795F7959E3F08F0B0CF9395880FE6
:1013200008F09927EE0F9795879508950E94320A45
:1013300088F09F5798F0B92F9927B751B0F0E1F096
:10134000660F771F881F991F1AF0BA95C9F714C046
:10135000B13091F00E944C0AB1E008950C944C0A0F
:10136000672F782F8827B85F39F0B93FCCF386957F
:1013700077956795B395D9F73EF4909580957095DC
:1013800061957F4F8F4F9F4F0895E89409C097FB59
:101390003EF490958095709561957F4F8F4F9F4F4C
:1013A0009923A9F0F92F96E9BB279395F695879590
:1013B00077956795B795F111F8CFFAF4BB0F11F453
:1013C00060FF1BC06F5F7F4F8F4F9F4F16C08823FA
:1013D00011F096E911C0772321F09EE8872F762F30
:1013E00005C0662371F096E8862F70E060E02AF071
:1013F0009A95660F771F881FDAF7880F969587955D
:1014000097F9089597F99F6780E870E060E0089584
:101410009FEF80EC089500240A941616170618060C
:101420000906089500240A941216130614060506E8
:101430000895092E0394000C11F4882352F0BB0F79
:1014400040F4BF2B11F460FF04C06F5F7F4F8F4FDC
:101450009F4F089557FD9058440F551F59F05F3F17
:1014600071F04795880F97FB991F61F09F3F79F0C6
:1014700087950895121613061406551FF2CF469548
:10148000F1DF08C0161617061806991FF1CF8695CA
:101490007105610508940895E894BB2766277727AE
:1014A000CB0197F908950E94660A0C94190A0E94CC
:1014B0000B0A38F00E94120A20F0952311F00C94C8
:1014C000020A0C94080A11240C944D0A0E942A0A5C
:1014D00070F3959FC1F3950F50E0551F629FF00187
:1014E000729FBB27F00DB11D639FAA27F00DB11DA0
:1014F000AA1F649F6627B00DA11D661F829F222729
:10150000B00DA11D621F739FB00DA11D621F839FAF
:10151000A00D611D221F749F3327A00D611D231F85
:10152000849F600D211D822F762F6A2F11249F57D3
:1015300050409AF0F1F088234AF0EE0FFF1FBB1FD6
:10154000661F771F881F91505040A9F79E3F510595
:1015500080F00C94020A0C944D0A5F3FE4F3983E2D
:10156000D4F3869577956795B795F795E7959F5F3F
:10157000C1F7FE2B880F911D9695879597F90895D1
:10158000991B79E004C0991F961708F0961B881FD5
:101590007A95C9F780950895A1E21A2EAA1BBB1B64
:1015A000FD010DC0AA1FBB1FEE1FFF1FA217B3072F
:1015B000E407F50720F0A21BB30BE40BF50B661F45
:1015C000771F881F991F1A9469F760957095809509
:1015D00090959B01AC01BD01CF010895A29FB00180
:1015E000B39FC001A39F700D811D1124911DB29F57
:1015F000700D811D1124911D0895AEE0B0E0E3E06F
:10160000FBE00C94BE0D0D891E8986E08C831A8345
:1016100009838FEF9FE79E838D83AE01475E5F4F07
:101620006F89788DCE0101960E941F0BEF81F8859E
:10163000E00FF11F10822E96E4E00C94DA0DABE07F
:10164000B0E0E5E2FBE00C94B00D6C017B018A0197
:10165000FC0117821682838181FFCCC1CE010196E5
:101660003C01F6019381F70193FD859193FF8191F0
:101670007F01882309F4BAC1853239F493FD85913D
:1016800093FF81917F01853229F4B60190E00E9499
:10169000160DE7CF912C212C312CFFE1F315D8F05A
:1016A0008B3279F038F4803279F08332A1F4232D33
:1016B00020611DC08D3261F0803369F4232D2160DB
:1016C00016C0832D8260382EE32DE4603E2E2AC0A2
:1016D000F32DF8601DC037FC2DC020ED280F2A30F7
:1016E00040F08E32B9F436FC81C1232D2064322EB5
:1016F00019C036FE06C08AE0989E200D1124922E55
:1017000011C0EAE02E9E200D1124222EF32DF0624E
:101710003F2E08C08C3621F4832D8068382E02C0FD
:10172000883641F4F70193FD859193FF81917F0104
:101730008111B3CF982F9F7D9554933028F40C5F7F
:101740001F4F9FE399830DC0833631F0833771F0CB
:10175000833509F059C021C0F801808189830E5F6B
:101760001F4F88248394912C530113C02801F2E069
:101770004F0E511CF801A080B18036FE03C0692DC8
:1017800070E002C06FEF7FEFC5010E940B0D4C01AE
:101790008201F32DFF773F2E16C0280122E0420E72
:1017A000511CF801A080B18036FE03C0692D70E0A5
:1017B00002C06FEF7FEFC5010E94000D4C01F32DB9
:1017C000F0683F2E820133FC1BC0822D90E088160A
:1017D0009906B0F4B60180E290E00E94160D2A94BA
:1017E000F4CFF50137FC859137FE81915F01B60199
:1017F00090E00E94160D21102A9421E0821A91088F
:101800008114910471F7E8C0843611F0893641F5EE
:10181000F80137FE07C060817181828193810C5F7E
:101820001F4F08C060817181072E000C880B990B37
:101830000E5F1F4FF32DFF763F2E97FF09C0909547
:101840008095709561957F4F8F4F9F4FF0683F2E29
:101850002AE030E0A3010E94520D882E861845C070
:10186000853731F4232D2F7EB22E2AE030E025C0BB
:10187000932D997FB92E8F36C1F018F4883579F001
:10188000B5C0803719F0883721F0B0C0E92FE0618A
:10189000BE2EB4FE0DC0FB2DF460BF2E09C034FE79
:1018A0000AC0292F2660B22E06C028E030E005C00D
:1018B00020E130E002C020E132E0F801B7FE07C0CD
:1018C00060817181828193810C5F1F4F06C06081AE
:1018D000718180E090E00E5F1F4FA3010E94520DC6
:1018E000882E8618FB2DFF773F2E36FE0DC0232D48
:1018F0002E7FA22E891458F434FE0BC032FC09C08E
:10190000832D8E7EA82E05C0B82CA32C03C0B82C26
:1019100001C0B92CA4FE0FC0FE01E80DF11D8081AD
:10192000803321F49A2D997EA92E09C0A2FE06C00B
:10193000B394B39404C08A2D867809F0B394A3FCC1
:1019400011C0A0FE06C0B21488F4280C922C9B187B
:101950000EC0B21460F4B60180E290E00E94160D51
:10196000B394F7CFB21418F42B1802C0982C212C82
:10197000A4FE10C0B60180E390E00E94160DA2FE06
:1019800017C0A1FC03C088E790E002C088E590E0A2
:10199000B6010CC08A2D867859F0A1FE02C08BE2F8
:1019A00001C080E2A7FC8DE2B60190E00E94160D16
:1019B000891438F4B60180E390E00E94160D9A94E1
:1019C000F7CF8A94F301E80DF11D8081B60190E014
:1019D0000E94160D8110F5CF222009F442CEB601E7
:1019E00080E290E00E94160D2A94F6CFF6018681DF
:1019F000978102C08FEF9FEF2B96E2E10C94CC0D04
:101A0000FC010590615070400110D8F780959095C9
:101A10008E0F9F1F0895FC016150704001900110CE
:101A2000D8F7809590958E0F9F1F08950F931F9361
:101A3000CF93DF93FB01238121FD03C08FEF9FEF45
:101A40002CC022FF16C04681578124813581421760
:101A5000530744F4A081B1819D012F5F3F4F318333
:101A600020838C93268137812F5F3F4F37832683D6
:101A700014C08B01EC01FB010084F185E02D099578
:101A8000892BE1F6D80116968D919C9117970196B6
:101A900017969C938E931697CE01DF91CF911F914D
:101AA0000F910895FA01AA27283051F1203181F1D0
:101AB000E8946F936E7F6E5F7F4F8F4F9F4FAF4F56
:101AC000B1E03ED0B4E03CD0670F781F891F9A1F69
:101AD000A11D680F791F8A1F911DA11D6A0F711D1D
:101AE000811D911DA11D20D009F468943F912AE029
:101AF000269F11243019305D3193DEF6CF01089511
:101B0000462F4770405D4193B3E00FD0C9F7F6CF41
:101B1000462F4F70405D4A3318F0495D31FD405209
:101B2000419302D0A9F7EACFB4E0A695979587959F
:101B300077956795BA95C9F700976105710508957E
:101B40009B01AC010A2E069457954795379527952A
:101B5000BA95C9F7620F731F841F951FA01D0895C2
:101B60002F923F924F925F926F927F928F929F92AD
:101B7000AF92BF92CF92DF92EF92FF920F931F939B
:101B8000CF93DF93CDB7DEB7CA1BDB0B0FB6F8944C
:101B9000DEBF0FBECDBF09942A88398848885F848C
:101BA0006E847D848C849B84AA84B984C884DF80FD
:101BB000EE80FD800C811B81AA81B981CE0FD11DE1
:101BC0000FB6F894DEBF0FBECDBFED010895F894B7
:021BD000FFCF45
:101BD2000101010F000700030001000001F0007085
:101BE20000300010002575004D6F646F003C0054FA
:101BF2002E56640073006C757800632F6D696E0059
:101C0200542E566D00542E416D004154454E4341B1
:081C12004F0050415245210032
:00000001FF
